:100000000C94A2010C94D3010C94D3010C94D30151
:100010000C94D3010C94D3010C94D3010C94D30110
:100020000C94D3010C9406170C9406170C94061725
:100030000C94D3010C94D3010C94D3010C94D301F0
:100040000C94D3010C94D8160C94D3010C94D301C6
:100050000C94D3010C94D3010C94D3010C9404168A
:100060000C94D3010C94CE150C94A4150C94D301CC
:100070000C94D3010C94D3010C94D3010C94D301B0
:100080000C94AA160C94D3010C94D3010C94D301B4
:100090000C94D3010C94D3010C94D3010C94D30190
:1000A0000C94D3010C94D3010C947C160C94D301C2
:1000B0000C94D3010C94D3010C94D3010C944E16E0
:1000C0000C94D3010C94D3010C94D3010C94D30160
:1000D0000C94D3010C94D3010C94D3010C94D30150
:1000E0000C94D3010C94C30B0C9409090C94770362
:1000F0000C944A030C94C70A0C94D0120C94B605C5
:100100000C941B020C946A0C0C9413090C94100EA2
:100110000C944C020C9480030C947B030C943608D2
:100120000C9465030C94BB0D0C946D030C94E408C3
:100130000C94C7050C94840B0C9452030C94FB0A8A
:100140000C94F0080C94F3220C94220F0C94320DB2
:100150000C94C0050C94AB080C9481030C945503CB
:100160000C9469030C94A90C0C944E030C94F508A0
:100170000C943E020C94B60F0C94FF080C94930858
:100180000C9437080C94AC050C949F100C947F05CC
:100190000C94C3050C945F030C945B030C943A0B12
:1001A0000C941E080C94360C0C94DE100C942A024D
:1001B0000C94E80C0C94D1020C94990E0C94460308
:1001C0000C94E30E0C94FA080C9455100C949B05B7
:1001D0000C94540A0C94EE010C9418090C940E091A
:1001E0000C94F70B0C9404090C9440030C948217A4
:1001F0000C9473030C945A0E0C94710D0C94880A91
:100200000C94F7090C9400100C946C0F0C9484025D
:100210000C94E6010C94CC080C94200A0C948503F1
:1002200000002100240027002A002D0030003300A8
:1002300001010000040107010A0100000A0B020984
:100240000C0D0E0807030401000000000000000070
:10025000000000000000000000000000000000009E
:10026000000000000000121110000000000000005B
:10027000000000000000000000000000000000007E
:10028000000020002300260029002C002F0032004F
:100290000001000003010601090100002200250001
:1002A00028002B002E00310034000201000005015F
:1002B00008010B01050505050705080808080202E5
:1002C00002020A0A080804040404010101010101F0
:1002D00001010303030303030303040707070C0CD3
:1002E0000C0C0C0C0C0C020202020606060606069A
:1002F00006060B0B0B0B0B0B0B0B0102102020083F
:100300000810204010204080020102010804020170
:1003100001020408102040808040201008040201DF
:100320008004020180402010080402010804020138
:1003300001020408102040800102040810204080BF
:100340008217F32211241FBECFEFD1E2DEBFCDBF53
:1003500000E00CBF14E0A0E0B2E0E0EBFCE400E061
:100360000BBF02C007900D92A63AB107D9F726E05D
:10037000A6EAB4E001C01D92AE3CB207E1F711E07D
:10038000C1EAD1E000E006C021970109802FFE01FB
:100390000E940B24C03AD10780E00807A9F70E9409
:1003A000A5180C9446260C940000FC01248135818C
:1003B0006217730748F480819181009729F0860FB6
:1003C000971FFC018081089580E008950895DC0165
:1003D000ED91FC910190F081E02D1994AF92BF92C4
:1003E000CF92DF92EF92FF920F931F93CF93DF9301
:1003F0006C017B018B01040F151FEB015E01AE1830
:10040000BF08C017D10759F06991D601ED91FC9151
:100410000190F081E02DC6011995892B79F7C5016E
:10042000DF91CF911F910F91FF90EF90DF90CF90D0
:10043000BF90AF900895FC01538D448D252F30E07F
:10044000842F90E0821B930B541710F0CF960895E1
:1004500001970895FC01918D828D981761F0A28D0E
:10046000AE0FBF2FB11D5D968C91928D9F5F9F73D4
:10047000928F90E008958FEF9FEF0895FC01918D8A
:10048000828D981731F0828DE80FF11D858D90E0F7
:1004900008958FEF9FEF0895FC01918D228D892F94
:1004A00090E0805C9F4F821B91098F73992708957C
:1004B00082EB95E00E944C0221E0892B09F420E0B8
:1004C000822F0895FC01A48DA80FB92FB11DA35A46
:1004D000BF4F2C91848D90E001968F739927848F64
:1004E000A689B7892C93A089B1898C918370806487
:1004F0008C93938D848D981306C00288F389E02D28
:1005000080818F7D80830895EF92FF920F931F93D8
:10051000CF93DF93EC0181E0888F9B8D8C8D9813B6
:100520001AC0E889F989808185FF15C09FB7F894C2
:10053000EE89FF896083E889F9898081837080640E
:1005400080839FBF81E090E0DF91CF911F910F9159
:10055000FF90EF900895F62E0B8D10E00F5F1F4F68
:100560000F731127E02E8C8D8E110CC00FB607FC77
:10057000FACFE889F989808185FFF5CFCE010E9405
:100580006202F1CFEB8DEC0FFD2FF11DE35AFF4F0F
:10059000F0829FB7F8940B8FEA89FB898081806293
:1005A000CFCFCF93DF93EC01888D8823B9F0AA8950
:1005B000BB89E889F9898C9185FD03C0808186FD1E
:1005C0000DC00FB607FCF7CF8C9185FFF2CF80816D
:1005D00085FFEDCFCE010E946202E9CFDF91CF917E
:1005E000089580E090E0892B29F00E945802811143
:1005F0000E94000080E090E0892B49F080E090E0CC
:10060000892B29F00E94000081110E94000080E0E7
:1006100090E0892B49F080E090E0892B29F00E943E
:10062000000081110E94000080E090E0892B49F0D9
:1006300080E090E0892B29F00E94000081110C9449
:10064000000008958150823108F05AC0E82FF0E090
:100650008827E25DFC4F8F4F0C940B244E0352030E
:10066000400346034A03800355035B035F036503AE
:1006700069036D037303770380037B0381038503A1
:10068000809180008F778093800008958091800012
:100690008F7DF9CF80918000877FF5CF84B58F77EC
:1006A00084BD089584B58F7DFBCF8091B0008F7796
:1006B0008093B00008958091B0008F7DF9CF809134
:1006C00090008F77809390000895809190008F7DA7
:1006D000F9CF80919000877FF5CF8091A0008F7730
:1006E0008093A00008958091A0008F7DF9CF809124
:1006F000A000877FF5CF809120018F778093200124
:100700000895809120018F7DF9CF80912001877F0E
:10071000F5CFCF93DF93282F30E0F901E65CFD4F52
:100720008491F901E650FD4FD491F901EC54FD4F4D
:10073000C491CC23A1F081110E942203EC2FF0E0A0
:10074000EE0FFF1FE058FD4FA591B491EC91ED2302
:1007500081E090E009F480E0DF91CF91089580E09E
:1007600090E0FACF1F93CF93DF93282F30E0F90169
:10077000E65CFD4F8491F901E650FD4FD491F901FB
:10078000EC54FD4FC491CC23A9F0162F81110E9487
:100790002203EC2FF0E0EE0FFF1FE656FD4FA59170
:1007A000B4918FB7F894EC91111108C0D095DE2365
:1007B000DC938FBFDF91CF911F910895DE2BF8CF8F
:1007C000CF93DF9390E0FC01E650FD4F24918C54D1
:1007D0009D4FFC0184918823C9F090E0880F991FF8
:1007E000FC01E05EFD4FA591B491FC01E656FD4F82
:1007F000C591D49161110DC09FB7F8948C9120954B
:1008000082238C938881282328839FBFDF91CF91F7
:100810000895623051F49FB7F8943C91822F8095EF
:1008200083238C93E8812E2BEFCF8FB7F894EC9134
:100830002E2B2C938FBFEACF3FB7F89480917E0583
:1008400090917F05A0918005B091810526B5A89B68
:1008500005C02F3F19F00196A11DB11D3FBFBA2F52
:10086000A92F982F8827BC01CD01620F711D811D12
:10087000911D42E0660F771F881F991F4A95D1F797
:1008800008958F929F92AF92BF92CF92DF92EF9294
:10089000FF926B017C010E941C044B015C01C1149E
:1008A000D104E104F104B9F00E941C04681979092B
:1008B0008A099B09683E73408105910580F321E018
:1008C000C21AD108E108F10888EE880E83E0981E6C
:1008D000A11CB11CE4CFFF90EF90DF90CF90BF90B0
:1008E000AF909F908F9008952F923F924F925F927A
:1008F0006F927F928F929F92AF92BF92CF92DF9230
:10090000EF92FF920F931F93CF93DF936B017C01C4
:100910008FB7F8948090AE059090AF05A090B00589
:10092000B090B1058FBFC114D104E104F10441F4CA
:10093000C0905506D0905606E0905706F0905806A5
:10094000C1E066E0262E73E0372EE8E04E2EF2E09E
:100950005F2EA7E06A2EBAE07B2E04E0D9E015E016
:1009600080914F0690915006DC01ED91FC9100843E
:10097000F185E02D1995892B09F4C5C060E070E080
:10098000CB010E94410420916D0680914F06909109
:100990005006DC01ED91FC910284F385E02D2111DC
:1009A0000BC01995809359068E37D1F680916D064C
:1009B0008F5F80936D06D4CF199590916D06E92FC6
:1009C000F0E0E15BF94F82879230B1F19930D1F1DB
:1009D0009130A1F58F3F91F110926D06C0936F0693
:1009E0001092720610927106C093730610927406EC
:1009F0002FB7F8948091AE059091AF05A091B00506
:100A0000B091B1052FBF88199909AA09BB09C81669
:100A1000D906EA06FB0608F0C3C010926D061092D4
:100A20006F06109272061092710681E08093730631
:100A30001092740680E06CC0863071F69F5F9093D0
:100A40006D068ECF8F3E41F6E0915C0620915E06EA
:100A500030E080915F0690E06091600670E0762F54
:100A6000662740916106640F711D40915B064E0F31
:100A70005527551FF0915D064F0F511D420F531F13
:100A8000480F591FF0915A064F0F511D519541952E
:100A900051096417750709F09FCF10926D06E13474
:100AA00019F4109274062FC0E0937006322F22279B
:100AB000280F391F3093720620937106EA53E631EE
:100AC00008F065C0F0E08827E759FA4F8F4F0C9483
:100AD0000B24AC05B6057F057F05C3059B05C00546
:100AE000C705C305C305C305C305C305C305C305C2
:100AF000C305C705C305C305C305C305C3051093D7
:100B00006F06C093730680917306882309F470CF33
:100B1000DF91CF911F910F91FF90EF90DF90CF90D9
:100B2000BF90AF909F908F907F906F905F904F900D
:100B30003F902F90089520FF03C0D0936F06E1CF20
:100B400021FF03C000936F06DCCF23703327232BD4
:100B5000D1F270926F06D5CF20FF03C060926F066E
:100B6000D0CF21FFD0CF50926F06CBCF20FF03C054
:100B700040926F06C6CF21FFC6CF30926F06C1CF1D
:100B800020926F06BECFBBE0B0936F06BACFC09382
:100B90006F061092720610927106C093730681CF91
:100BA00060E070E0CB010E944104DACE80936606DB
:100BB000272F30E0709368066093690640916506C0
:100BC00090916406490F5527551F840F952F911D4D
:100BD00040916706840F911D820F931F680F792F34
:100BE000711D71956195710970936A0660936B062A
:100BF000442379F080917406882359F060E070E016
:100C0000CB010E94410460E070E0CB010E947404BB
:100C1000F1CF80914F0690915006DC01ED91FC914F
:100C20000280F381E02D4AE050E063E676E019951A
:100C30002FB7F8948091AE059091AF05A091B005C3
:100C4000B091B1052FBF8093510690935206A093A7
:100C50005306B09354068091670691E0811101C05C
:100C600090E090937406811106C06AE070E080E025
:100C700090E00C9441040895BC0183E00C94D605E7
:100C80006EE170E086E00C94D605CF92DF92EF9291
:100C9000FF92CF93DF93EC01603282E07807CCF5CE
:100CA000653B710514F064EB70E0898128E830E061
:100CB000281B310987FD3395220F331F220F331F65
:100CC0006901330FEE08FF088A8128E532E0281B0E
:100CD000310987FD3395220F331F220F331F032E57
:100CE000000C440B550B2C193D094E095F09DB0123
:100CF00077FF02C0B0E0A0E00E94B22324EB30E016
:100D000040E050E00E948823C20ED31EE41EF51E70
:100D1000B601E881E03370F5298188E890E0821B14
:100D2000910927FD9395880F991F880F991F6817C0
:100D300079077CF02A8188E592E0821B910927FDE2
:100D40009395880F991F880F991F681779070CF4DE
:100D5000CB010297880F991F4FB7F8942E2F30E0E0
:100D6000F901EE0FFF1FE20FF31FE351FB4F9283D8
:100D700081834FBFDF91CF91FF90EF90DF90CF90B5
:100D800008951F93CF93DF93EC01162F8881803352
:100D900008F04EC061E0812F0E94E0038881282F77
:100DA00030E0F901EE0FFF1FE20FF31FE351FB4F9D
:100DB0001F736081607C612B608319821A822CE032
:100DC000622F0E94EB23829FB001112430E020E0CB
:100DD000AB01420F531FFA01EE0FFF1FE40FF51F87
:100DE000E351FB4F908196FD16C02F5F3F4F2C3093
:100DF000310571F7813009F51092800082E080930F
:100E000081001092850010928400B19A80916F0049
:100E1000826080936F00E8818E2F90E0FC01EE0FDE
:100E2000FF1FE80FF91FE351FB4F8081806480832F
:100E30008881DF91CF911F910895823061F41092E3
:100E4000900080939100109295001092940088BBBE
:100E500080937100E0CF833069F41092A00082E0AB
:100E60008093A1001092A5001092A40089BB8093EA
:100E70007200D1CF8111CFCF1092200182E08093F8
:100E8000210110922501109224018ABB80937300E6
:100E9000C2CFFC019091EC04903398F481E0890F6B
:100EA0008093EC049083892F90E0FC01EE0FFF1FEC
:100EB000E80FF91FE351FB4F88EB9BE0928381839E
:100EC00008958FEF80830895AF92BF92CF92DF9203
:100ED000EF92FF920F931F93CF93DF936B017A01F1
:100EE000EC01C851DB4F28813CE0389F8001399FDD
:100EF000100D1124A090EC04B12C27FF1FC0FB01A2
:100F00001182108288818F5F888388819801280FE1
:100F1000311D87FD3A95F6012A153B051CF48881A1
:100F20008C30C4F180819181049680349C4908F40E
:100F300073C0F60180819181049670C08881980108
:100F4000280F311D87FD3A952A153B05DCF688816F
:100F5000A801480F511D87FD5A95FA01EE0FFF1F9A
:100F6000E40FF51FE351FB4F808186FFCBCF8881D3
:100F7000F801E80FF11D87FDFA95CF01EE0FFF1F75
:100F8000E80FF91FE351FB4F808160E08F730E94EF
:100F9000B203B8CF808191812881A801420F511DF1
:100FA00027FD5A959A01FA01EE0FFF1FE20FF31F7A
:100FB000E351FB4F21813281820F931FF70191830F
:100FC000808388819801280F311D87FD3A95F901AA
:100FD000EE0FFF1FE20FF31FE351FB4F808186FFEF
:100FE00022C08881080F111D87FD1A95F801EE0FA8
:100FF000FF1FE00FF11FE351FB4F808161E08F7312
:10100000DF91CF911F910F91FF90EF90DF90CF90E4
:10101000BF90AF900C94B20380E49CE9F7019183F8
:1010200080838FEF8883DF91CF911F910F91FF9085
:10103000EF90DF90CF90BF90AF90089520918405FE
:10104000309185052817390771F4909182058091B8
:101050008305981741F0E0918205F0E0E855FB4FD9
:10106000808190E008958FEF9FEF08950895EF92AB
:10107000FF920F931F93CF93DF93DC015C96ED906B
:10108000FC905D97E114F10479F481E090E013960F
:101090009C938E93129790E080E0DF91CF911F9107
:1010A0000F91FF90EF9008955196ED91FC9152971A
:1010B00050968C915097982F90950FB75E962C91E3
:1010C0005E97122F127021FD6095F89420811123F4
:1010D00019F1282B2083E7012197F1F728E0462F0B
:1010E00050E0308160FF1AC0382B3083E701219730
:1010F000F1F7BA0175956795215089F7112381F0B1
:101100008081892380830FBF5C968D919C9101978C
:10111000F1F781E090E0C1CF2923DCCF3923E5CF7F
:101120009081892BEFCF2091840530918505281778
:10113000390771F4809183052091820590E0805CED
:101140009F4F821B910960E470E00E94F72308958D
:1011500090E080E00895209184053091850528175E
:101160003907B9F49091820580918305981789F029
:10117000E0918205F0E0E855FB4F808120918205E7
:1011800030E02F5F3F4F2F7333272093820590E08D
:1011900008958FEF9FEF089590E080E008958A30E2
:1011A000910508F04AC0FC018827E652F74F8F4F9F
:1011B0000C940B24E408F008F508FA08FF08040969
:1011C00009090E09130918090E94400681E090E000
:1011D0000E943C066AEF70E080E090E00C944104CD
:1011E0000E94400682E090E0F3CF0E94400683E038
:1011F00090E0EECF0E94400684E090E0E9CF0E94AC
:10120000400685E090E0E4CF0E94400686E090E052
:10121000DFCF0E94400687E090E0DACF0E944006D0
:1012200088E090E0D5CF0E94400689E090E0D0CFE2
:101230000E9440068AE090E0CBCF0895CF93DF93E1
:101240006AE570E081E896E00E9445066CE271E094
:1012500080E090E00E9441048AE590E09093A7042A
:101260008093A604C091A604D091A704D7FD11C015
:10127000BE0181E896E00E9445066FE070E080E0E4
:1012800090E00E9441042197D093A704C093A60444
:10129000E9CFDF91CF910895CF93DF936AE570E0B6
:1012A0008DE896E00E9445066AE570E087E896E0E2
:1012B0000E9445066AE570E084E896E00E944506D3
:1012C0006AE570E081E896E00E9445066CE271E014
:1012D00080E090E00E9441048AE590E09093A704AA
:1012E0008093A604C091A604D091A704D7FD20C086
:1012F000BE018DE896E00E944506BE0187E896E0B3
:101300000E944506BE0184E896E00E944506BE01A3
:1013100081E896E00E9445066FE070E080E090E092
:101320000E9441042197D093A704C093A604DACF6A
:10133000DF91CF910895CF93DF938E528D3408F0D3
:101340003DC7E82F880FFF0B8827E655F64F8F4FD4
:101350000C940B249F10DE10F70BF709200A540A97
:10136000880AC70AFB0A3A0B840BC30BDE10DE1097
:10137000DE10DE10DE10DE10DE10F709200A540A3F
:10138000880AC70AFB0A3A0B840BC30BF70B360C0F
:101390006A0CA90CE80C320D710DBB0D100E5A0E23
:1013A000990EE30E220F6C0FB60F00105510DE10D1
:1013B000DE10DE10DE10DE10DE10F709200A540AFF
:1013C000880AC70AFB0A3A0B840BC30BF70B360CCF
:1013D0006A0CA90CE80C320D710DBB0D100E5A0EE3
:1013E000990EE30E220F6C0FB60F001055106AE530
:1013F00070E080E996E00E94450665E070E080E0DC
:1014000090E00E9441048AE590E09093A7048093C5
:10141000A604C091A604D091A704D7FDCFC6BE01F3
:1014200080E996E00E94450665E070E080E090E08B
:101430000E9441042197D093A704C093A604E9CF4A
:101440006AE570E080E996E00E9445066AE570E092
:101450008AE896E00E9445066CE271E080E090E048
:101460000E9441048AE590E09093A7048093A6042B
:10147000C091A604D091A704D7FDA0C6BE0180E903
:1014800096E00E944506BE018AE896E00E94450665
:101490006FE070E080E090E00E9441042197D093DB
:1014A000A704C093A604E4CF6AE570E080E996E063
:1014B0000E9445066AE570E08DE896E00E944506C8
:1014C0006CE271E080E090E00E9441048AE590E0E7
:1014D0009093A7048093A604C091A604D091A7047A
:1014E000D7FD6CC6BE0180E996E00E944506BE01AC
:1014F0008DE896E00E94450665E070E080E090E0AF
:101500000E9441042197D093A704C093A604E4CF7E
:101510006AE570E080E996E00E9445066AE570E0C1
:101520008DE896E00E9445066AE570E087E896E05F
:101530000E9445066CE271E080E090E00E94410468
:101540008AE590E09093A7048093A604C091A60436
:10155000D091A704D7FD32C6BE0180E996E00E9473
:101560004506BE018DE896E00E944506BE0187E86B
:1015700096E00E9445066FE070E080E090E00E94F7
:1015800041042197D093A704C093A604DFCF6AE556
:1015900070E080E996E00E9445066AE570E087E821
:1015A00096E00E9445066CE271E080E090E00E94C7
:1015B00041048AE590E09093A7048093A604C0912B
:1015C000A604D091A704D7FDF9C5BE0180E996E035
:1015D0000E944506BE0187E896E00E9445066FE03E
:1015E00070E080E090E00E9441042197D093A7042E
:1015F000C093A604E4CF6AE570E080E996E00E941B
:1016000045066AE570E08DE896E00E9445066AE5C9
:1016100070E08AE896E00E9445066CE271E080E0A6
:1016200090E00E9441048AE590E09093A7048093A3
:10163000A604C091A604D091A704D7FDBFC5BE01E2
:1016400080E996E00E944506BE018DE896E00E9482
:101650004506BE018AE896E00E9445066FE070E00C
:1016600080E090E00E9441042197D093A704C093AA
:10167000A604DFCF6AE570E080E996E00E944506A7
:101680006AE570E08DE896E00E9445066AE570E044
:101690008AE896E00E9445066AE570E087E896E0F1
:1016A0000E9445066CE271E080E090E00E944104F7
:1016B0008AE590E09093A7048093A604C091A604C5
:1016C000D091A704D7FD7AC5BE0180E996E00E94BB
:1016D0004506BE018DE896E00E944506BE018AE8F7
:1016E00096E00E944506BE0187E896E00E94450606
:1016F0006FE070E080E090E00E9441042197D09379
:10170000A704C093A604DACF6AE570E080E996E00A
:101710000E9445066AE570E08AE896E00E94450668
:101720006AE570E087E896E00E9445066CE271E0A9
:1017300080E090E00E9441048AE590E09093A70445
:101740008093A604C091A604D091A704D7FD36C506
:10175000BE0180E996E00E944506BE018AE896E057
:101760000E944506BE0187E896E00E9445066FE0AC
:1017700070E080E090E00E9441042197D093A7049C
:10178000C093A604DFCF6AE570E08DE896E00E9482
:1017900045066AE570E08AE896E00E9445066CE23C
:1017A00071E080E090E00E9441048AE590E090932F
:1017B000A7048093A604C091A604D091A704D7FDE6
:1017C000FDC4BE018DE896E00E944506BE018AE890
:1017D00096E00E9445066FE070E080E090E00E9495
:1017E00041042197D093A704C093A604E4CF6AE5EF
:1017F00070E08DE896E00E9445066AE570E08AE8B0
:1018000096E00E9445066AE570E087E896E00E944F
:1018100045066CE271E080E090E00E9441048AE5B8
:1018200090E09093A7048093A604C091A604D09161
:10183000A704D7FDC3C4BE018DE896E00E9445060B
:10184000BE018AE896E00E944506BE0187E896E060
:101850000E9445066FE070E080E090E00E94410445
:101860002197D093A704C093A604DFCF6AE570E068
:1018700080E996E00E9445066AE570E084E896E01B
:101880000E9445066CE271E080E090E00E94410415
:101890008AE590E09093A7048093A604C091A604E3
:1018A000D091A704D7FD8AC4BE0180E996E00E94CA
:1018B0004506BE0184E896E00E9445066FE070E0B0
:1018C00080E090E00E9441042197D093A704C09348
:1018D000A604E4CF6AE570E080E996E00E94450640
:1018E0006AE570E08AE896E00E9445066AE570E0E5
:1018F00084E896E00E9445066CE271E080E090E0AA
:101900000E9441048AE590E09093A7048093A60486
:10191000C091A604D091A704D7FD50C4BE0180E9B0
:1019200096E00E944506BE018AE896E00E944506C0
:10193000BE0184E896E00E9445066FE070E080E01A
:1019400090E00E9441042197D093A704C093A6047D
:10195000DFCF6AE570E080E996E00E9445066AE51F
:1019600070E08DE896E00E9445066AE570E084E844
:1019700096E00E9445066CE271E080E090E00E94F3
:1019800041048AE590E09093A7048093A604C09157
:10199000A604D091A704D7FD11C4BE0180E996E04A
:1019A0000E944506BE018DE896E00E944506BE01F4
:1019B00084E896E00E9445066FE070E080E090E0E9
:1019C0000E9441042197D093A704C093A604DFCFBF
:1019D0006AE570E080E996E00E9445066AE570E0FD
:1019E0008DE896E00E9445066AE570E087E896E09B
:1019F0000E9445066AE570E084E896E00E9445068C
:101A00006CE271E080E090E00E9441048AE590E0A1
:101A10009093A7048093A604C091A604D091A70434
:101A2000D7FDCCC3BE0180E996E00E944506BE0109
:101A30008DE896E00E944506BE0187E896E00E9488
:101A40004506BE0184E896E00E9445066FE070E01E
:101A500080E090E00E9441042197D093A704C093B6
:101A6000A604DACF6AE570E080E996E00E944506B8
:101A70006AE570E087E896E00E9445066AE570E056
:101A800084E896E00E9445066CE271E080E090E018
:101A90000E9441048AE590E09093A7048093A604F5
:101AA000C091A604D091A704D7FD88C3BE0180E9E8
:101AB00096E00E944506BE0187E896E00E94450632
:101AC000BE0184E896E00E9445066FE070E080E089
:101AD00090E00E9441042197D093A704C093A604EC
:101AE000DFCF6AE570E080E996E00E9445066AE58E
:101AF00070E08DE896E00E9445066AE570E08AE8AD
:101B000096E00E9445066AE570E084E896E00E944F
:101B100045066CE271E080E090E00E9441048AE5B5
:101B200090E09093A7048093A604C091A604D0915E
:101B3000A704D7FD43C3BE0180E996E00E94450695
:101B4000BE018DE896E00E944506BE018AE896E057
:101B50000E944506BE0184E896E00E9445066FE0BB
:101B600070E080E090E00E9441042197D093A704A8
:101B7000C093A604DACF6AE570E080E996E00E949F
:101B800045066AE570E08DE896E00E9445066AE544
:101B900070E08AE896E00E9445066AE570E087E812
:101BA00096E00E9445066AE570E084E896E00E94AF
:101BB00045066CE271E080E090E00E9441048AE515
:101BC00090E09093A7048093A604C091A604D091BE
:101BD000A704D7FDF3C2BE0180E996E00E94450646
:101BE000BE018DE896E00E944506BE018AE896E0B7
:101BF0000E944506BE0187E896E00E944506BE01A8
:101C000084E896E00E9445066FE070E080E090E096
:101C10000E9441042197D093A704C093A604D5CF76
:101C20006AE570E080E996E00E9445066AE570E0AA
:101C30008AE896E00E9445066AE570E087E896E04B
:101C40000E9445066AE570E084E896E00E94450639
:101C50006CE271E080E090E00E9441048AE590E04F
:101C60009093A7048093A604C091A604D091A704E2
:101C7000D7FDA4C2BE0180E996E00E944506BE01E0
:101C80008AE896E00E944506BE0187E896E00E9439
:101C90004506BE0184E896E00E9445066FE070E0CC
:101CA00080E090E00E9441042197D093A704C09364
:101CB000A604DACF6AE570E08DE896E00E9445065A
:101CC0006AE570E08AE896E00E9445066AE570E001
:101CD00084E896E00E9445066CE271E080E090E0C6
:101CE0000E9441048AE590E09093A7048093A604A3
:101CF000C091A604D091A704D7FD60C2BE018DE8B3
:101D000096E00E944506BE018AE896E00E944506DC
:101D1000BE0184E896E00E9445066FE070E080E036
:101D200090E00E9441042197D093A704C093A60499
:101D3000DFCF6AE570E08DE896E00E9445066AE52F
:101D400070E08AE896E00E9445066AE570E087E860
:101D500096E00E9445066AE570E084E896E00E94FD
:101D600045066CE271E080E090E00E9441048AE563
:101D700090E09093A7048093A604C091A604D0910C
:101D8000A704D7FD1BC2BE018DE896E00E94450660
:101D9000BE018AE896E00E944506BE0187E896E00B
:101DA0000E944506BE0184E896E00E9445066FE069
:101DB00070E080E090E00E9441042197D093A70456
:101DC000C093A604DACF6AE570E080E996E00E944D
:101DD00045066AE570E084E896E00E9445066AE5FB
:101DE00070E081E896E00E9445066CE271E080E0D8
:101DF00090E00E9441048AE590E09093A7048093CC
:101E0000A604C091A604D091A704D7FDD7C1BE01F6
:101E100080E996E00E944506BE0184E896E00E94B3
:101E20004506BE0181E896E00E9445066FE070E03D
:101E300080E090E00E9441042197D093A704C093D2
:101E4000A604DFCF6AE570E080E996E00E944506CF
:101E50006AE570E08AE896E00E9445066AE570E06F
:101E600084E896E00E9445066AE570E081E896E025
:101E70000E9445066CE271E080E090E00E9441041F
:101E80008AE590E09093A7048093A604C091A604ED
:101E9000D091A704D7FD92C1BE0180E996E00E94CF
:101EA0004506BE018AE896E00E944506BE0184E828
:101EB00096E00E944506BE0181E896E00E94450634
:101EC0006FE070E080E090E00E9441042197D093A1
:101ED000A704C093A604DACF6AE570E08DE896E027
:101EE0000E9445066AE570E08AE896E00E94450691
:101EF0006AE570E087E896E00E9445066AE570E0D2
:101F000081E896E00E9445066CE271E080E090E096
:101F10000E9441048AE590E09093A7048093A60470
:101F2000C091A604D091A704D7FD48C1BE018DE899
:101F300096E00E944506BE018AE896E00E944506AA
:101F4000BE0187E896E00E944506BE0181E896E062
:101F50000E9445066FE070E080E090E00E9441043E
:101F60002197D093A704C093A604DACF6AE570E066
:101F700080E996E00E9445066AE570E08DE896E00B
:101F80000E9445066AE570E084E896E00E944506F6
:101F90006AE570E081E896E00E9445066CE271E037
:101FA00080E090E00E9441048AE590E09093A704CD
:101FB0008093A604C091A604D091A704D7FDFEC0CB
:101FC000BE0180E996E00E944506BE018DE896E0DC
:101FD0000E944506BE0184E896E00E944506BE01C7
:101FE00081E896E00E9445066FE070E080E090E0B6
:101FF0000E9441042197D093A704C093A604DACF8E
:102000006AE570E080E996E00E9445066AE570E0C6
:102010008DE896E00E9445066AE570E087E896E064
:102020000E9445066AE570E084E896E00E94450655
:102030006AE570E081E896E00E9445066CE271E096
:1020400080E090E00E9441048AE590E09093A7042C
:102050008093A604C091A604D091A704D7FDAEC07A
:10206000BE0180E996E00E944506BE018DE896E03B
:102070000E944506BE0187E896E00E944506BE0123
:1020800084E896E00E944506BE0181E896E00E9441
:1020900045066FE070E080E090E00E9441042197E7
:1020A000D093A704C093A604D5CF6AE570E080E979
:1020B00096E00E9445066AE570E087E896E00E9497
:1020C00045066AE570E084E896E00E9445066AE508
:1020D00070E081E896E00E9445066CE271E080E0E5
:1020E00090E00E9441048AE590E09093A7048093D9
:1020F000A604C091A604D091A704D7FD5FC0BE017D
:1021000080E996E00E944506BE0187E896E00E94BD
:102110004506BE0184E896E00E944506BE0181E8BE
:1021200096E00E9445066FE070E080E090E00E943B
:1021300041042197D093A704C093A604DACF6AE59F
:1021400070E08AE896E00E9445066AE570E087E85C
:1021500096E00E9445066AE570E081E896E00E94FC
:1021600045066CE271E080E090E00E9441048AE55F
:1021700090E09093A7048093A604C091A604D09108
:10218000A704D7FD1BC0BE018AE896E00E94450661
:10219000BE0187E896E00E944506BE0181E896E010
:1021A0000E9445066FE070E080E090E00E944104EC
:1021B0002197D093A704C093A604DFCFDF91CF91DE
:1021C0000895EF92FF920F931F93892B09F048C057
:1021D000672BC9F0452B51F0232B39F1012B09F462
:1021E00055C081E3EF2851F488E708C0232B91F113
:1021F000012B09F47CC082E3EF28B1F31F910F910A
:10220000FF90EF900895452BB9F0232B39F0012B67
:1022100009F442C083E3EF2839F3F0CF012B09F42E
:1022200041C084E3EF2801F3E9CF012B09F440C05A
:1022300085E3EF28C9F2E2CF232B31F0012BF1F136
:1022400086E3EF2889F2DACF012BE9F187E3EF2863
:1022500059F2D4CF012BE1F188E3EF2829F2CECF58
:10226000672B11F6452B09F0BFCF232B39F0012B3B
:10227000A1F189E3EF2809F4B7CFC0CF012B91F189
:1022800080E3EF2809F0BACF87E5B8CF8BE4EF28D9
:1022900009F0B4CF85E5B2CF8DE4EF2809F0AECFD9
:1022A00088E5ACCF8EE4EF2809F0A8CF89E5A6CF6A
:1022B0008FE4EF2809F0A2CF8AE5A0CF80E5EF28D0
:1022C00009F492CF9BCF81E5EF2809F48DCF96CF0B
:1022D00082E5EF2809F488CF91CF83E5EF2809F450
:1022E00083CF8CCF84E5EF2809F47ECF87CF86E5B6
:1022F000EF2809F079CF82CFCF93DF93EC0160E034
:102300008E810E94B20361E08E810E94B20360E080
:102310008E810E94B2038BE891E00197F1F7DF9183
:10232000CF910895CF92DF92EF92FF920F931F9378
:10233000CF93DF936C017C0187E0E80EF11CD0E0C5
:10234000C0E0062F10E0B8010C2E02C0759567950D
:102350000A94E2F76170F70181917F010E94B20354
:102360002196C430D10579F7C601DF91CF911F9135
:102370000F91FF90EF90DF90CF900C947C11CF9253
:10238000DF92EF92FF920F931F93CF93DF93EC01B5
:10239000F62E642F8C810E94B2038D818F3F19F03D
:1023A00060E00E94B2030F2D10E08F8584FF25C0EE
:1023B0006E0187E0C80ED11CF12CE12CB8010E2C67
:1023C00002C0759567950A94E2F76170F6018191F4
:1023D0006F010E94B203FFEFEF1AFF0A88E0E816D0
:1023E000F10461F7CE01DF91CF911F910F91FF9022
:1023F000EF90DF90CF900C947C11B80184E075953C
:1024000067958A95E1F7CE010E9492116F2DCE015A
:10241000DF91CF911F910F91FF90EF90DF90CF90C0
:102420000C94921140E0682F82EB96E00C94BF115F
:1024300081E00E9412128BE39FE10197F1F708956A
:10244000CF93DF93823029F49091C10698609093E6
:10245000C1068093C5061092C60680E48093C70625
:1024600080E18093C80680E58093C90661E0809191
:10247000B6060E94E0038091B7068F3F19F061E035
:102480000E94E00361E08091B8060E94E003C2EB85
:10249000D6E09E01225B36408091C10684FD0BC0D0
:1024A00084E090E021962817390744F461E08E819A
:1024B0000E94E003EECF88E090E0F4CF8BE39DE054
:1024C0000197F1F760E08091B6060E94B20360E0E8
:1024D0008091B8060E94B2038091B7068F3F19F031
:1024E00060E00E94B2038091C10684FD34C063E0C5
:1024F00082EB96E00E949211CBE4D6E4CE010197E4
:10250000F1F763E082EB96E00E9492112197F1F7D8
:1025100063E082EB96E00E94921183E592E00197DE
:10252000F1F762E082EB96E00E9492118091C10681
:1025300080620E94121284E08093C2068CE00E94A6
:1025400012120E94181282E08093C30686E0DF9187
:10255000CF910C94121280620E9412128BE496E4C6
:102560000197F1F78091C10680620E94121283E503
:1025700092E00197F1F78091C10680620E941212E9
:10258000D5CF9091C506691710F06FEF690FE62F50
:10259000F0E0EE54F94F9489890F80680C94121280
:1025A00041E00E94BF1181E090E00895CF93DF9356
:1025B000EC0180917506909176060097E9F06881AC
:1025C000798161157105B1F04091770650917806D7
:1025D0002C813D814217530768F00E943F268C8171
:1025E0009D8190937A06809379061D821C82DF91EB
:1025F000CF9108950E94C324888199819093760693
:10260000809375068A819B819093780680937706E4
:102610008C819D8190937A06809379061982188225
:102620001B821A82E2CFCF93DF93EC0188819981DC
:10263000009711F00E94C324198218821D821C8207
:102640001B821A82DF91CF910895FC0180819181D4
:10265000009711F00C94C3240895FB010190002011
:10266000E9F73197AF01461B570BDC01ED91FC9167
:102670000280F381E02D1994BC0182EB96E00C946A
:102680002D13CF93DF93FC014481558160817181CB
:1026900082EB95E00E94EE01EC0160E972E082EBD2
:1026A00095E00E942D138C0F9D1FDF91CF9108950F
:1026B000CF93DF93BC0182EB95E00E942D13EC01D8
:1026C00060E972E082EB95E00E942D138C0F9D1F54
:1026D000DF91CF910895CF93DF93682F82EB95E040
:1026E0000E94E701EC0160E972E082EB95E00E9454
:1026F0002D138C0F9D1FDF91CF910895CF93DF9302
:10270000EFE8F5E0DF01ED0109900020E9F7CE01E7
:10271000805995409F012F5835402817390710F4EC
:102720001192F1CFDF91CF9108950F931F93CF9323
:10273000DF93EC0188819981009759F02A813B81D0
:102740002617370730F081E0DF91CF911F910F916D
:1027500008958B016F5F7F4F0E944C25009759F0C1
:10276000998388831B830A832C813D81232B59F70E
:10277000FC011082E8CF80E0E7CFEF92FF920F9349
:102780001F93CF93DF938C017B01EB010990002015
:10279000E9F72197C61BD70BBE010E949513811143
:1027A00009C0C801DF91CF911F910F91FF90EF9069
:1027B0000C941313F801D583C483B70180819181F0
:1027C000DF91CF911F910F91FF90EF900C943F26D6
:1027D0000F931F93CF93DF93CDB7DEB762970FB6FA
:1027E000F894DEBF0FBECDBF8C01CB01F801118282
:1027F000108213821282158214824AE0BE016F5F3A
:102800007F4F0E943523BE016F5F7F4FC8010E943A
:10281000BD1362960FB6F894DEBF0FBECDBFDF9139
:10282000CF911F910F910895EF92FF920F931F93F5
:10283000CF93DF93EC01FB01E080F180E114F10420
:1028400011F10481158101151105A9F08C819D817B
:10285000080F191FB801CE010E949513882399F023
:10286000288139818C819D81B701820F931F0E943D
:102870003F261D830C83CE01DF91CF911F910F91D5
:10288000FF90EF900895CE010E941313F4CFEF92C2
:10289000FF920F931F93CF93DF93EC017B0119827B
:1028A00018821B821A821D821C82FB01019000206B
:1028B000E9F731978F01061B170BB8010E9495139A
:1028C000811109C0CE01DF91CF911F910F91FF902F
:1028D000EF900C9413131D830C83B70188819981A9
:1028E000DF91CF911F910F91FF90EF900C943F26B5
:1028F000CF93DF93CDB7DEB72C970FB6F894DEBF3A
:102900000FBECDBF86E10E9489039093A0058093FE
:102910009F05BC01CE0107960E94E81363E972E0AF
:10292000CE0101960E944714BE01695F7F4FCE0120
:1029300001960E9414140E944113CE0101960E9438
:102940002513CE0107960E94251387E10E94890373
:1029500090939E0580939D05BC01CE0107960E9431
:10296000E8136DE972E0CE0101960E944714BE01A2
:10297000695F7F4FCE0101960E9414140E9441139B
:10298000CE0101960E942513CE0107960E942513C1
:1029900088E10E94890390939C0580939B05BC016C
:1029A000CE0107960E94E81367EA72E0CE01019615
:1029B0000E944714BE01695F7F4FCE0101960E94BD
:1029C00014140E944113CE0101960E942513CE01DA
:1029D00007960E94251389E10E94890390939A0526
:1029E00080939905BC01CE0107960E94E81361EB24
:1029F00072E0CE0101960E944714BE01695F7F4FCD
:102A0000CE0101960E9414140E944113CE0101963A
:102A10000E942513CE0107960E9425138AE10E9489
:102A200089039093980580939705BC01CE01079682
:102A30000E94E8136BEB72E0CE0101960E944714EE
:102A4000BE01695F7F4FCE0101960E9414140E945F
:102A50004113CE0101960E942513CE0107960E94D4
:102A600025138BE10E948903909396058093950529
:102A7000BC01CE0107960E94E81365EC72E0CE011E
:102A800001960E944714BE01695F7F4FCE010196F7
:102A90000E9414140E944113CE0101960E94251336
:102AA000CE0107960E9425138CE10E948903909322
:102AB0008C0580938B05BC01CE0107960E94E8131C
:102AC0006FEC72E0CE0101960E944714BE01695F6F
:102AD0007F4FCE0101960E9414140E944113CE0133
:102AE00001960E942513CE0107960E9425132C966D
:102AF0000FB6F894DEBF0FBECDBFDF91CF91089522
:102B0000FF920F931F93CF93DF93EC018B01FB0197
:102B1000F0800E947223F81621F06F2DCE010E94E2
:102B20007A23F801F1802196CE010E947223F816D3
:102B300021F06F2DCE010E947A23C801DF91CF9141
:102B40001F910F91FF9008951F920F920FB60F9251
:102B500011240BB60F922F933F934F935F936F9374
:102B60007F938F939F93AF93BF93EF93FF9382EBEA
:102B700095E00E946202FF91EF91BF91AF919F910A
:102B80008F917F916F915F914F913F912F910F9016
:102B90000BBE0F900FBE0F901F9018951F920F92B3
:102BA0000FB60F9211240BB60F922F938F939F9312
:102BB000EF93FF93E091C205F091C3058081E0910E
:102BC000C805F091C90582FD1DC090818091CB059B
:102BD0008F5F8F732091CC05821741F0E091CB0578
:102BE000F0E0EE54FA4F958F8093CB05FF91EF9173
:102BF0009F918F912F910F900BBE0F900FBE0F9052
:102C00001F9018958081F2CF1F920F920FB60F92EE
:102C100011242F933F938F939F93AF93BF938091F2
:102C2000AE059091AF05A091B005B091B10530917E
:102C30007D0523E0230F2D3758F50196A11DB11D09
:102C400020937D058093AE059093AF05A093B005CA
:102C5000B093B10580917E0590917F05A09180058C
:102C6000B09181050196A11DB11D80937E059093C1
:102C70007F05A0938005B0938105BF91AF919F918F
:102C80008F913F912F910F900FBE0F901F9018952D
:102C900026E8230F0296A11DB11DD2CF1F920F92DD
:102CA0000FB60F9211240BB60F922F933F934F93B1
:102CB0005F936F937F938F939F93AF93BF93EF93A4
:102CC000FF9348E251E064E271E090E080E00E940E
:102CD0006407FF91EF91BF91AF919F918F917F9189
:102CE0006F915F914F913F912F910F900BBE0F907D
:102CF0000FBE0F901F9018951F920F920FB60F9254
:102D000011240BB60F922F933F934F935F936F93C2
:102D10007F938F939F93AF93BF93EF93FF9348EA73
:102D200050E064EA70E083E090E00E946407FF9165
:102D3000EF91BF91AF919F918F917F916F915F9133
:102D40004F913F912F910F900BBE0F900FBE0F90A0
:102D50001F9018951F920F920FB60F9211240BB669
:102D60000F922F933F934F935F936F937F938F9324
:102D70009F93AF93BF93EF93FF9348E950E064E9CB
:102D800070E082E090E00E946407FF91EF91BF91B4
:102D9000AF919F918F917F916F915F914F913F91F3
:102DA0002F910F900BBE0F900FBE0F901F90189594
:102DB0001F920F920FB60F9211240BB60F922F9302
:102DC0003F934F935F936F937F938F939F93AF93B3
:102DD000BF93EF93FF9348E850E064E870E081E030
:102DE00090E00E946407FF91EF91BF91AF919F9196
:102DF0008F917F916F915F914F913F912F910F90A4
:102E00000BBE0F900FBE0F901F9018951F920F9240
:102E10000FB60F9211240BB60F922F933F934F933F
:102E20005F936F937F938F939F93AF93BF93EF9332
:102E3000FF93E0918405F0918505309749F0A685D0
:102E4000B7858585968D91FF16C09C918923B1F435
:102E5000FF91EF91BF91AF919F918F917F916F9172
:102E60005F914F913F912F910F900BBE0F900FBE2E
:102E70000F901F9018959C91892351F7A389B489CD
:102E80009C918589809589238C9386899789019760
:102E9000F1F7608D718DA685B785558538E020E006
:102EA000CB010197F1F7822F90E095958795282F18
:102EB0004C91452309F02068315091F7868D81FDB2
:102EC00020958091830590E001968F73992730912A
:102ED0008205381799F0A0918305B0E0A855BB4F43
:102EE0002C9380938305828D938D0197F1F7A389AD
:102EF000B4898C919589892B8C93AACF868D81601A
:102F0000868FF1CFCF92DF92EF92FF921092B505AC
:102F10001092B40598EEC92E93E0D92EE12CF12C35
:102F2000C092B605D092B705E092B805F092B90507
:102F300084E692E09093B3058093B20585EC90E02F
:102F40009093BF058093BE0584EC90E09093C105FB
:102F50008093C00580EC90E09093C3058093C205F8
:102F600081EC90E09093C5058093C40582EC90E0DD
:102F70009093C7058093C60586EC90E09093C905B1
:102F80008093C8051092CB051092CC051092CD0508
:102F90001092CE051092B5061092B40688E892E021
:102FA0009093B3068093B2068DE08093B6068FEFC0
:102FB0008093B7068CE08093B8068BE08093B906C7
:102FC0008AE08093BA0689E08093BB0688E080930C
:102FD000BC061092BD061092BE061092BF0610925B
:102FE000C0061092C10681E00E942012109296063F
:102FF00010929506C0929706D0929806E092990694
:10300000F0929A0686E792E0909394068093930656
:103010001092AA061092A9061092AC061092AB0666
:103020001092AE061092AD061092B0061092AF0646
:103030006091B1066E7F6D7F6093B1066695617099
:1030400081E0682782E30E94B20361E082E30E948C
:10305000E003ECE2F3E0E491E093A306E6EEF2E0B5
:10306000E491F0E0EE0FFF1FE656FD4F859194913D
:103070009093A5068093A40660E083E30E94E0039A
:103080008091B10681FD04C061E083E30E94B20338
:1030900083E380939F06EDE2F3E0E491E093A006E2
:1030A000E7EEF2E0E491F0E0EE0FFF1FE058FD4F95
:1030B000859194919093A2068093A10680E996E071
:1030C0000E9449078DE896E00E9449078AE896E049
:1030D0000E94490787E896E00E94490784E896E045
:1030E0000E94490781E896E00E9449076CED72E072
:1030F0008BE796E00E94471462E972E085E796E06C
:103100000E94471484EF91E0A0E0B0E08093550660
:1031100090935606A0935706B09358068AE0E2E5CE
:10312000F2E0A3E6B6E001900D928A95E1F71092E5
:103130006D0682E080936E061092730610927406FC
:10314000FF90EF90DF90CF900895CF93DF93CDB7AE
:10315000DEB7A9970FB6F894DEBF0FBECDBF789447
:1031600084B5826084BD84B5816084BD85B582608C
:1031700085BD85B5816085BD80916E00816080933D
:103180006E001092810080918100826080938100A6
:1031900080918100816080938100809180008160B6
:1031A000809380008091B10084608093B100809111
:1031B000B00081608093B000809191008260809324
:1031C00091008091910081608093910080919000A6
:1031D0008160809390008091A10082608093A10023
:1031E0008091A10081608093A1008091A000816006
:1031F0008093A000809121018260809321018091C1
:103200002101816080932101809120018160809360
:10321000200180917A00846080937A0080917A0006
:10322000826080937A0080917A00816080937A0036
:1032300080917A00806880937A001092C100E091BA
:10324000C205F091C30582E08083E091BE05F09154
:10325000BF051082E091C005F091C1058FEC80831D
:103260001092CA05E091C605F091C70586E08083FB
:10327000E091C405F091C505808180618083E09173
:10328000C405F091C505808188608083E091C40504
:10329000F091C505808180688083E091C405F0913C
:1032A000C50580818F7D80831092AE061092AD0699
:1032B0001092AC061092AB061092AA061092A906C4
:1032C0008DE991E09093B0068093AF0680919F06C0
:1032D00096EF980F943048F02EEC280F243028F009
:1032E00022EC280F283008F061C02DEB30E030933D
:1032F000AA062093A9062BE931E03093AC0620936F
:10330000AB062CE231E03093AE062093AD0694304C
:1033100050F02EEC280F243030F022EC280FF0E093
:10332000E0E0283010F4E8E6F0E02081943028F066
:1033300032EC380F383008F4F8C131E0232B9430E8
:1033400048F09EEC980F943028F08E53F0E0E0E0C7
:10335000883010F4E8E6F0E0208320919F0636EFF5
:10336000320F343008F4E3C18EEC820F843008F45D
:10337000DEC182EC820F883008F4DCC190E080E08E
:103380009093A7068093A606343008F0D6C1265045
:10339000330B81E001C0880F2A95EAF78093A806D5
:1033A0008091AF069091B0060197F1F78091AD063C
:1033B0009091AE06892B49F1E0918405F091850545
:1033C00086E0E339F80709F1309739F0A389B48929
:1033D0009C918589809589238C938091B1068E7FFD
:1033E0008093B106109283051092820583E996E0DE
:1033F0009093850580938405E091A606F091A70639
:1034000080819091A806892B808360E072E0809192
:103410008605909187050E94801580918605909180
:1034200087050296909387058093860562E072E097
:103430000E9480150091860510918705C8010296AB
:1034400090938705809386050E94722380930002E3
:10345000C80103960E94722380930102C80104965A
:1034600090938705809386050E94722380930202C1
:10347000C80105960E947223809303020A5F1F4FC2
:10348000109387050093860583E996E09093500694
:1034900080934F0681E08093670670E060E08CE0E7
:1034A0000E94D60560ED77E080E090E00E94740411
:1034B00068EC70E080E090E00E9441041092730696
:1034C00082E00E9420128EED92E00E943C1361E0A7
:1034D00080E00E94C11286EE92E00E943C1362E0FE
:1034E00086E10E94E00362E087E10E94E00362E07F
:1034F00088E10E94E00362E089E10E94E00362E06B
:103500008AE10E94E00362E08BE10E94E00362E056
:103510008CE10E94E00362E070E080E996E00E94A6
:10352000C10663E070E08DE896E00E94C10664E0A9
:1035300070E08AE896E00E94C10665E070E087E8E6
:1035400096E00E94C10666E070E084E896E00E9482
:10355000C10667E070E081E896E00E94C10670E075
:1035600060E080E996E00E94450670E060E08DE84A
:1035700096E00E94450670E060E08AE896E00E94CE
:10358000450670E060E087E896E00E94450670E03E
:1035900060E084E896E00E94450670E060E081E823
:1035A00096E00E94450668EC70E080E090E00E94A2
:1035B00041040E941812A6E32A2EA2E03A2EB2E09D
:1035C0008B2E912C1AE0412E512C612C712C0E94D3
:1035D00078146091AC057091AD05CE0101960E9402
:1035E000E81366EF72E0CE0182960E944714BE0196
:1035F0006F5F7F4FCE0182960E9414140E94411388
:10360000CE0182960E942513CE0101960E942513B9
:103610008091AC059091AD058130910509F4E2C02F
:1036200008F4A0C08230910509F4CAC2039709F4D6
:103630009CC38091AC059091AD058530910509F44E
:1036400007C5069709F4D1C58091AC059091AD05E9
:10365000079709F073C785E494E00E94581360E06F
:1036600080E00E94C11281E594E00E943C138091A9
:103670009F059091A005892B09F450C680919D0566
:1036800090919E05892B09F449C680919B059091E4
:103690009C05892B09F442C68091990590919A0561
:1036A000892B09F43BC68091970590919805892B49
:1036B00009F434C68091950590919605892B09F4FB
:1036C0002DC64FE8E42E45E0F42E5701F501019098
:1036D0000020E9F7CF018059954097012F583540D8
:1036E0002817390708F061C6F70101917F0100939F
:1036F0000402802F0E949B09002E000C110B005326
:1037000011091093A2050093A10564E670E080E022
:1037100090E00E944104C8010E94CF086CE271E071
:1037200080E090E00E944104D1CF34E007CE8BE6E8
:1037300090E026CE8DE690E023CE88E0223309F497
:103740002DCE84E0233309F429CE82E0243309F41A
:1037500025CE82EC820F883018F42E53330B19CE0D
:1037600081E01CCE0E94181260E080E00E94C1122D
:1037700084E093E00E943C1361E080E00E94C1126B
:103780008FE093E00E943C130E9440068BE090E0A3
:103790000E943C060E941E096AE173E08BE796E0F6
:1037A0000E94BD1310E000E080917F06909180069A
:1037B0000817190750F4B8018BE796E00E94D5016D
:1037C0000E949B090F5F1F4FEFCF64EF71E080E015
:1037D00090E00E944104E1E0F0E0F093AD05E09359
:1037E000AC0527CF0E94181260E080E00E94C11251
:1037F0008EE293E00E943C130E941E0961E473E094
:103800008BE796E00E94BD1310E000E080917F06F8
:10381000909180060817190760F4B8018BE796E0CD
:103820000E94D50180934B020E949B090F5F1F4F9E
:10383000EDCF82EB95E00E944C02892BD1F3F8E5A5
:10384000FF2E82EB95E00E944C02181619060CF030
:10385000F0CE82EB95E00E942A028093AB05682FA0
:1038600082EB95E00E94E70190914A028091AB05BE
:10387000981739F382E593E00E9458138091AB05C5
:1038800080934A020E946B1380914A02813409F4AA
:1038900043C08234B1F60E94181260E080E00E94BA
:1038A000C1128DE893E00E943C130E94181260E060
:1038B00080E00E94C11282E793E00E943C1386E3FD
:1038C00092E09093AA058093A905F1010190002050
:1038D000E9F7CF01875392409093A8058093A705FD
:1038E00061E080E00E94C11210E000E08091A70535
:1038F0009091A805081719070CF0DAC0E091A90506
:10390000F091AA05E00FF11F608182EB96E00E9422
:10391000E7010F5F1F4FEACF0E94181260E080E0BE
:103920000E94C11288E693E00E943C1388E693E06F
:103930000E94581364EF71E080E090E00E9441041F
:103940000E94181260E080E00E94C11282E793E0BA
:103950000E943C1382E292E09093AA058093A9050D
:10396000FC0101900020E9F7CF018352924090932F
:10397000A8058093A70561E080E00E94C11210E0D5
:1039800000E08091A7059091A8050817190774F425
:10399000E091A905F091AA05E00FF11F608182EB8B
:1039A00096E00E94E7010F5F1F4FEBCF0E94400699
:1039B0008CE090E00E943C060E941E0902E212E0A8
:1039C000F80181918F0180934B020E949B09201680
:1039D0003106B1F764EF71E080E090E00E944104AD
:1039E0000E94181260E080E00E94C1128DE793E00F
:1039F0000E943C1388E092E09093A6058093A50571
:103A0000FC0101900020E9F7CF018950924090938A
:103A1000A4058093A30561E080E00E94C11210E03C
:103A200000E08091A3059091A4050817190774F48C
:103A3000E091A505F091A605E00FF11F608182EBF2
:103A400096E00E94E7010F5F1F4FEBCF0E944C09E9
:103A500008E012E02091A3053091A405C801885028
:103A6000924082179307CCF4F801E1908F01E09225
:103A70004B028E2D0E949B098E2DEE0C990BC09748
:103A80009093A2058093A1050E94CF086CE271E09B
:103A900080E090E00E944104DDCF10920702109276
:103AA0000602F0924A029092AD058092AC05C9CE12
:103AB0000E9440068DE090E00E943C060E941E0994
:103AC00002E212E09801225232400F5F1F4F8091B4
:103AD000A7059091A805281739073CF4F8018389B8
:103AE00080934B020E949B09EDCF64EF71E080E070
:103AF00090E00E9441040E94181260E080E00E9461
:103B0000C1128DE793E00E943C1385E192E090930F
:103B1000A6058093A505FC0101900020E9F7CF01DF
:103B2000865192409093A4058093A30561E080E0C4
:103B30000E94C11210E000E08091A3059091A405BD
:103B40000817190774F4E091A505F091A605E00F98
:103B5000F11F608182EB96E00E94E7010F5F1F4F2B
:103B6000EBCF0E944C0908E012E0C8018850924057
:103B70000F5F1F4F2091A3053091A4058217930773
:103B8000C4F4F801E484E0924B028E2D0E949B095C
:103B90008E2DEE0C990BC0979093A2058093A105F2
:103BA0000E94CF086CE271E080E090E00E94410446
:103BB000DCCF81E090E0909307028093060271CF02
:103BC0006091060270910702CE0101960E94E813EF
:103BD00067E973E0CE0182960E944714BE016F5FD1
:103BE0007F4FCE0182960E9414140E944113CE0191
:103BF00082960E942513CE0101960E9425130E94F1
:103C0000181260E080E00E94C11286EA93E00E94F0
:103C10003C130E944C0966EB73E08BE796E00E9430
:103C2000BD1310E000E080917F0690918006081798
:103C3000190750F4B8018BE796E00E94D5010E9465
:103C40009B090F5F1F4FEFCF0E941E0968EA73E0C8
:103C50008BE796E00E94BD1310E000E080917F06A4
:103C6000909180060817190750F4B8018BE796E089
:103C70000E94D5010E949B090F5F1F4FEFCF8091DB
:103C80000502883709F053C089EB93E00E9458136E
:103C90000E94781480919F059091A005892BF1F0E6
:103CA00080919D0590919E05892BC1F080919B0587
:103CB00090919C05892B91F08091990590919A059E
:103CC000892B61F08091970590919805892B31F0AF
:103CD0008091950590919605892B89F687EC93E064
:103CE0000E945813E0909505F09096050091970575
:103CF000109198052091990530919A0540919B0566
:103D000050919C0560919D0570919E0580919F0545
:103D10009091A0050E94E110809305020E946B1310
:103D200068EE73E080E090E00E944104A8CF80320A
:103D300009F47FCC813339F0823309F07ACC88E7FB
:103D40008093050276CC88E7809305020E941812C2
:103D50000E9440068EE090E00E943C0683E090E0E6
:103D60009093AD058093AC0564CC60E080E00E9448
:103D7000C11281ED93E00E943C1380919F059091C8
:103D8000A005892BF9F080919D0590919E05892BC6
:103D9000C9F080919B0590919C05892B99F08091A9
:103DA000990590919A05892B69F0809197059091DA
:103DB0009805892B39F08091950590919605892B6E
:103DC00009F048C0809193059091940504970CF0F8
:103DD00041C00E947814E0909505F09096050091FE
:103DE0009705109198052091990530919A05409179
:103DF0009B0550919C0560919D0570919E05809159
:103E00009F059091A0050E94E1108837D9F220917A
:103E1000930530919405890101571A4FF801808369
:103E200061E0822F0E94C112F801608182EB96E06E
:103E30000E94E701809193059091940501969093DB
:103E400094058093930560ED77E080E090E00E9418
:103E50004104B8CF80918F051A8219821C821B827F
:103E60001E821D828AA31BA2BE016E5D7F4FCE0102
:103E700001960E94BD136CED73E0CE0182960E9404
:103E80004714BE016F5F7F4FCE0182960E941414CB
:103E9000FC01448155816081718182EB95E00E9433
:103EA000EE01CE0182960E942513CE0101960E945A
:103EB000251380918F05882309F445C0EFE8EE2E85
:103EC000E5E0FE2E8701F80101900020E9F7CF011F
:103ED0008059954097012F5835402817390798F594
:103EE000F701B1907F01B09204028B2D0E949B09D3
:103EF0006B2DBB0C770B605371097093A205609317
:103F0000A105CE0101960E94E8136AEE73E0CE018E
:103F100082960E944714BE016F5F7F4FCE0182964A
:103F20000E9414140E944113CE0182960E94251310
:103F3000CE0101960E9425138091A1059091A205C2
:103F40000E94CF08C0CF809193059091940504976B
:103F50000CF46FCB10929305E0910602F0910702EA
:103F6000EE0FFF1FE45AFD4F6FE875E080819181ED
:103F70000E943626892B09F046C00E94181260E084
:103F800080E00E94C11284EF93E00E943C1364EF32
:103F900071E080E090E00E9441040E9440068FE0C2
:103FA00090E00E943C0664EF71E080E090E00E94A7
:103FB000410410929405109293050E947E1385E0AF
:103FC00090E09093AD058093AC0565E070E0CE0184
:103FD00001960E94E81366EF72E0CE0182960E947D
:103FE0004714BE016F5F7F4FCE0182960E9414146A
:103FF0000E944113CE0182960E942513CE010196A4
:104000000E94251316CB0E94181260E080E00E94E7
:10401000C11285E094E00E943C1364EF71E080E0FF
:1040200090E00E9441040E94400680E190E00E94DE
:104030003C06109294051092930564EF71E080E0C5
:1040400090E00E9441040E9418120E947E1386CEC6
:104050000E94181260E080E00E94C11284E194E0A6
:104060000E943C1361E080E00E94C1128EE194E066
:104070000E943C138BE294E00E94581368EE73E0B8
:1040800080E090E00E9441040E94400681E190E0BF
:104090000E943C0668EE73E080E090E00E944104DC
:1040A0000E94400682E190E00E943C0668EE73E0C8
:1040B00080E090E00E94410410910502183709F059
:1040C0004DC089EB93E00E9458130E9478148091B0
:1040D0009F059091A005892BF1F080919D0590910D
:1040E0009E05892BC1F080919B0590919C05892BA1
:1040F00091F08091990590919A05892B61F08091BA
:10410000970590919805892B31F0809195059091B4
:104110009605892B89F687EC93E00E945813E0906E
:104120009505F090960500919705109198052091BE
:10413000990530919A0540919B0550919C0560919D
:104140009D0570919E0580919F059091A0050E940C
:10415000E110809305020E946B13A8CF68EE73E014
:1041600080E090E00E9441041A8219821C821B8226
:104170001E821D821AA31BA2BE016E5D7F4FCE015F
:1041800001960E94BD1362E374E0CE0182960E9404
:104190004714BE016F5F7F4FCE0182960E941414B8
:1041A0000E944113CE0182960E942513CE010196F2
:1041B0000E94251380910502813359F0823309F062
:1041C00043CA88E7809305020E94181287E090E0B6
:1041D00007C088E7809305020E94181286E090E0ED
:1041E0009093AD058093AC052FCA60E080E00E94FB
:1041F000C1128AE394E00E943C1361E080E00E94D7
:10420000C112E0910602F0910702EE0FFF1FE0508D
:10421000FE4FC080D1800D2C000CEE08FF08F7FE89
:104220005EC06DE282EB96E00E94E7012227332711
:10423000A9012C193D094E095F0919A28E010F5DD4
:104240001F4FCA01B901A30192010E94BA23605D08
:10425000F80162938F01211531054105510589F758
:104260000115110529F0B80182EB96E00E942D138B
:10427000E0910602F0910702EE0FFF1FE050FE4FA3
:1042800060817181CE0101960E94E813CE010196F2
:104290000E94D612CE0101960E94251310E000E084
:1042A0008091790690917A060817190770F5B80180
:1042B00085E796E00E94D501082E000C990BC09767
:1042C00090938E0580938D050E94CF086CE271E07B
:1042D00080E090E00E9441040F5F1F4FE1CFA701F3
:1042E000960119A28E010F5D1F4FCA01B901A301EA
:1042F00092010E94BA23605DF80162938F0121153B
:1043000031054105510589F7ABCF64EF71E080E0DD
:1043100090E00E94410485E090E062CF8CE10E9431
:104320008903019709F0CDC90E947814E0909505A2
:10433000F0909605009197051091980520919905A8
:1043400030919A0540919B0550919C0560919D0587
:1043500070919E0580919F059091A0050E94E110AB
:104360008837E1F220919305309194058901015736
:104370001A4FF801808361E0822F0E94C112F80178
:10438000608182EB96E00E94E70180919305909115
:1043900094050196909394058093930564EF71E0E2
:1043A00080E090E00E944104B9CF60918B0570914C
:1043B0008C05CE0101960E94E8136FE574E0CE01F2
:1043C00082960E944714BE016F5F7F4FCE01829696
:1043D0000E9414140E944113CE0182960E9425135C
:1043E000CE0101960E942513E0908B05F0908C057C
:1043F000E114F10409F090C00E94181264E170E029
:1044000080E090E00E9441048FEC92E00E945813FB
:10441000E0919305F0919405E157FA4F10828FE8EF
:1044200095E00E9417238C01BC01CE0101960E94E9
:10443000E81363E774E0CE0182960E944714BE0140
:104440006F5F7F4FCE0182960E9414140E94411329
:10445000CE0182960E942513CE0101960E9425135B
:104460008091060290910702880F991FFC01E0508D
:10447000FE4F20813181201B310B30938A05209320
:10448000890539A728A731832083909387058093D6
:104490008605BE01685D7F4F0E948015E09106028F
:1044A000F0910702EE0FFF1FE050FE4F6081718117
:1044B000CE0101960E94E813CE0101960E94D61209
:1044C000CE0101960E9425138091790690917A067B
:1044D000E816F906D0F5B70185E796E00E94D50108
:1044E000082F880F110B0053110910938E050093AC
:1044F0008D0564E670E080E090E00E944104C80110
:104500000E94CF086CE271E080E090E00E944104DC
:10451000FFEFEF1AFF0AD8CF809193059091940591
:10452000049721F4109294051092930580918805C8
:10453000882321F01092AD051092AC056CE271E079
:1045400080E090E00E9441044AC06091890570912A
:104550008A05CE0101960E94E81364E874E0CE015A
:1045600082960E944714BE016F5F7F4FCE018296F4
:104570000E9414140E944113CE0182960E942513BA
:10458000CE0101960E9425130E94181260E080E07F
:104590000E94C11282E994E00E943C1361E080E035
:1045A0000E94C1126091890570918A05CE01019621
:1045B0000E94E8134D815E8169817A8182EB96E0E9
:1045C0000E94EE01CE0101960E94251360ED77E076
:1045D00080E090E00E94410481E0809388050E9481
:1045E000F1020C94E71A85E796E00E9425138BE709
:1045F00096E00E94251386E792E0909394068093BC
:10460000930680918405909185058359964071F4B5
:10461000E091A606F091A70690818091A80680956A
:104620008923808310928505109284050895FC01EA
:1046300088279927E89421912032E9F3293010F056
:104640002E30C8F32B3241F02D3239F4689404C077
:104650000E944023820F911D219120532A30C0F3E4
:104660001EF4909581959F4F0895BB274A3031F4F1
:10467000992322F4BDE2909581959F4F0C94492394
:104680007AE0979F902D879F802D910D112408959A
:10469000BB27FB015527AA27880F991FAA1FA4171C
:1046A00010F0A41B83955051B9F7A05DAA3308F010
:1046B000A95DA193009779F7B111B1931192CB0144
:1046C0000C946223DC01FC01672F71917723E1F7E1
:1046D000329704C07C916D9370836291AE17BF07CF
:1046E000C8F30895F999FECF92BD81BDF89A992734
:1046F00080B50895262FF999FECF1FBA92BD81BDCE
:1047000020BD0FB6F894FA9AF99A0FBE0196089553
:10471000052E97FB1EF400940E949F2357FD07D09F
:104720000E94BA2307FC03D04EF40C949F235095AB
:104730004095309521953F4F4F4F5F4F089590958D
:104740008095709561957F4F8F4F9F4F08950E9480
:10475000DC23A59F900DB49F900DA49F800D911D0B
:1047600011240895B7FF0C94A7230E94A723821B4E
:10477000930B0895A1E21A2EAA1BBB1BFD010DC0CD
:10478000AA1FBB1FEE1FFF1FA217B307E407F50701
:1047900020F0A21BB30BE40BF50B661F771F881FDD
:1047A000991F1A9469F760957095809590959B0173
:1047B000AC01BD01CF010895A29FB001B39FC0011C
:1047C000A39F700D811D1124911DB29F700D811D3D
:1047D0001124911D0895991B79E004C0991F961723
:1047E00008F0961B881F7A95C9F78095089597FB66
:1047F000072E16F4009407D077FD09D00E941324E9
:1048000007FC05D03EF4909581959F4F08957095D3
:1048100061957F4F0895EE0FFF1F881F8BBF079094
:10482000F691E02D1994AA1BBB1B51E107C0AA1FEA
:10483000BB1FA617B70710F0A61BB70B881F991F41
:104840005A95A9F780959095BC01CD0108950F93D5
:104850001F93CF93DF938230910510F482E090E0B4
:10486000E091CC06F091CD0630E020E0B0E0A0E091
:10487000309799F42115310509F44AC0281B390BEA
:1048800024303105D8F58A819B816115710589F144
:10489000FB0193838283FE0111C04081518102811B
:1048A000138148175907E0F04817590799F41097F2
:1048B00061F012960C93129713961C933296CF01C7
:1048C000DF91CF911F910F9108950093CC06109323
:1048D000CD06F4CF2115310551F04217530738F0BA
:1048E000A901DB019A01BD01DF01F801C1CFEF0190
:1048F000F9CF9093CD068093CC06CDCFFE01E20F89
:10490000F31F819391932250310939832883D7CFA4
:104910002091CA063091CB06232B41F420914E0200
:1049200030914F023093CB062093CA0620914C025F
:1049300030914D022115310541F42DB73EB740911C
:10494000500250915102241B350BE091CA06F091A0
:10495000CB06E217F307A0F42E1B3F0B28173907ED
:1049600078F0AC014E5F5F4F2417350748F04E0FCB
:104970005F1F5093CB064093CA06819391939FCFBC
:10498000F0E0E0E09CCFCF93DF930097E9F0FC01EB
:10499000329713821282A091CC06B091CD06ED0120
:1049A00030E020E01097A1F420813181820F931F25
:1049B0002091CA063091CB062817390709F061C04B
:1049C000F093CB06E093CA06DF91CF910895EA01F8
:1049D000CE17DF07E8F54A815B819E01411551053D
:1049E000B1F7E901FB83EA8349915991C40FD51FBF
:1049F000EC17FD0761F4808191810296840F951F69
:104A0000E90199838883828193819B838A83F0E083
:104A1000E0E012968D919C9113970097B9F52D9136
:104A20003C911197CD010296820F931F2091CA06E7
:104A30003091CB062817390739F6309751F5109287
:104A4000CD061092CC06B093CB06A093CA06BCCF7D
:104A5000D383C28340815181840F951FC817D90722
:104A600061F44E5F5F4F88819981480F591F5183D0
:104A700040838A819B81938382832115310509F0CC
:104A8000B0CFF093CD06E093CC069ECFFD01DC01C4
:104A9000C0CF13821282D7CF4F925F926F927F92D4
:104AA0008F929F92AF92BF92CF92DF92EF92FF923E
:104AB0000F931F93CF93DF938C01009799F4CB0151
:104AC000DF91CF911F910F91FF90EF90DF90CF90EA
:104AD000BF90AF909F908F907F906F905F904F901E
:104AE0000C942724FC01E60FF71F9C01225031098A
:104AF000E217F30708F4AEC0D901CD91DC9111970C
:104B0000C617D70720F1C530D10578F0CE0104973C
:104B10008617970750F0C61BD70B2297C193D193E6
:104B20006D937C93CF010E94C324C801DF91CF9184
:104B30001F910F91FF90EF90DF90CF90BF90AF90BB
:104B40009F908F907F906F905F904F9008955B0142
:104B5000AC1ABD0A4C018C0E9D1EA091CC06B091E2
:104B6000CD06512C412CF12CE12C109731F5809180
:104B7000CA069091CB068815990509F05CC04616C7
:104B8000570608F058C080914C0290914D02009752
:104B900041F48DB79EB74091500250915102841B51
:104BA000950BE817F90708F055C0F093CB06E09392
:104BB000CA06F90171836083B8CF8D919C911197DA
:104BC00012966C90129713967C901397A815B905BE
:104BD00059F56C0142E0C40ED11CCA14DB0420F16B
:104BE000AC014A195B09DA011296159780F06282CE
:104BF000738251834083D9016D937C93E114F10456
:104C000071F0D7011396FC93EE9312978ECF2296F4
:104C10008C0F9D1FF90191838083F301EFCFF093F7
:104C2000CD06E093CC0681CF4816590608F42C0136
:104C30007D01D3019ACFCB010E9427247C010097EC
:104C400049F0AE01B8010E942D26C8010E94C3247C
:104C500087016BCF10E000E068CFFB01DC0102C0F0
:104C600001900D9241505040D8F70895FB01DC01AE
:104C70008D91019080190110D9F3990B0895FB01D2
:104C8000DC0101900D920020E1F7089511E0C1EAE6
:104C9000D1E000E006C0802FFE010E940B24219687
:104CA000011DC23AD10780E00807A9F7F894FFCFA9
:104CB000204E204E7878FFFF313233343536373886
:104CC00039303132003233343536373839303132D9
:104CD000330056494A4159204B554D41520000007E
:104CE000000000000000414A495448204B554D4106
:104CF0005200000000000000000058780000CE06BE
:104D000080007EFF06000100000000EF9B04A0046D
:104D1000000000008402EE011B02D1024C022A02B4
:104D20003E02000000003708EE01CC083608930868
:104D3000AB081E0800000000D012EE01CC08E6010E
:104D40000D0A0062746E3153746174650062746E92
:104D50003253746174650062746E335374617465A8
:104D60000062746E3453746174650062746E3553FE
:104D7000746174650062746E3653746174650063A7
:104D80006F6E6669726D537461746500780041548A
:104D90004D20666F7200446561662044756D622027
:104DA000426C696E640063757272656E74537461EF
:104DB00074653D0057656C636F6D20746F200058FB
:104DC000595A2042616E6B2E2E0057656C636F6DD1
:104DD0006520746F2058595A2042616E6B005761EC
:104DE0006974696E6720466F7220466163652E2E76
:104DF0000057616974696E6720466F72204661636F
:104E0000650073746F72696E6720696E746F2070CD
:104E100072655F6461746100464143452049443ACC
:104E2000310055736572204E616D653A00416363D0
:104E30006F756E74204E756D6265723A004641431F
:104E4000452049443A320063757272656E7443615D
:104E50007264203D2000312E454E5445522041546D
:104E60004D2050494E00312E00456E7465726564C8
:104E7000207768696C6500616C6C2073746174657F
:104E800000454E5445522050494E3A0062726169C5
:104E90006C6C65496E7075743D00496E7444696749
:104EA00069743D005041535357524F44204D415473
:104EB000434845440057524F4E47205041535357A3
:104EC0004F524400312E42414C414E434500322E58
:104ED0005749544844524157414C00414D4F554E5B
:104EE00054004F5054494F4E3A0042616C616E631A
:104EF000653A202400574954485F44524157414C79
:104F000000456E74657220616D6F756E743A006352
:104F10006F6E6669726D53746174652076616C752D
:104F2000653A007769746864726177616C416D6F8E
:104F3000756E74004E657742616C616E6365203DED
:104F4000200042616C616E63653A00313233340097
:064F500035363738000081
:00000001FF
